:0400000080316A28B9
:100008007E1480310B1C09280A2815282700961E03
:100018000E280F281328961201302000AA008B10F2
:100028000B102000911D19281A2868289111240006
:10003800151F1F28202826288131DD218031240022
:10004800151368281108F70041307706031D2D287D
:100058002E282F28F6010530760203183428352873
:100068003D287608203E8600870177088100013008
:10007800F60705307602031C4228432868285A30C0
:100088007706031D4828492868280530F000003005
:10009800F100F201F3015E287208253E860087010F
:1000A8007208203E84008501000881000130F207B3
:1000B8000030F33D71087302031D64287008720252
:1000C800031C6728682850287E10090080316C2896
:1000D8008131F3218031B600F601F701F801F90109
:1000E80020308400003085000F308131E4218031D8
:1000F8007E102000803180282100191499141915C8
:1001080099151916991603302000B5008A30B400E5
:100118005530890B8D28B40B8D28B50B8D280032EE
:1001280021008C120C128E120E128E118D132200C9
:100138008C120C128E120E128E118D1321008D1638
:1001480023009D13210011129D0123008C018D01B4
:100158008E018131EA2180318131CC218031813198
:10016800EF21803122008D1720002A03031DBD28AE
:10017800BE280F2941302506031DC328C428D428CA
:100188005A302906031DC928CA28D4282608D03E73
:10019800F9002708D03EF8002808D03EAE00DA283B
:1001A8006F30F9005930F8006F30AE007908031D40
:1001B800DE28DF28E6280B308131822180312000BB
:1001C800AD00EC2879088131822180312000AD0012
:1001D80078088131822180312000AC002E088131DD
:1001E800822180312000AB002C08F4002B08F50098
:1001F8002D0881312521803166302000B500763008
:10020800B400C130890B0629B40B0629B50B0629A1
:100218002000AA01B628F401F5010030813125211A
:1002280080310B302000B5002630B4005D30890BDA
:100238001B29B40B1B29B50B1B290032B6288031AA
:100248006A282000B100B201B30120003108AF00D4
:10025800320A2F29AF36890B2E292F080139B00011
:10026800B00EB00D0E083006DF3930068E00740867
:10027800AF00320A4029AF36890B3F292F080139D0
:10028800B000B00E0C083006EF3930068C00750847
:10029800AF00320A5029AF36890B4F292F08013990
:1002A800B000B00EB00D0C083006DF3930068C00F7
:1002B8008E15A630890B5E29003220008E11A630DB
:1002C800890B6429003201302000B2070030B33DA9
:1002D8003308803AAF0080302F02031D752908309B
:1002E8003202031C78297929292920000E16A63004
:1002F800890B7C29003220000E120800F400A7297F
:100308003F30F500CA290630F500CA295B30F500F0
:10031800CA294F30F500CA296630F500CA296D3060
:10032800F500CA297D30F500CA290730F500CA2929
:100338007F30F500CA296F30F500CA297930F500F9
:10034800CA29F501CA297408003A03198429013A0F
:1003580003198729033A03198A29013A03198D29B0
:10036800073A03199029013A03199329033A031903
:100378009629013A031999290F3A03199C29013A38
:1003880003199F29503A0319A229A52975080800BD
:1003980021000D170D168E130E1725302400950019
:1003A8001410941714171712210091152000911199
:1003B80008002400141CE129E229DD29110808009D
:1003C800640080010131890BE5290034270095017B
:1003D80094168B1008008B150B178B1708004B34DD
:020000040001F9
:04000E00E42FFF1FBD
:00000001FF
